:10000000FAC0000015C1000013C1000011C10000BA
:100010000FC100000DC100000BC1000009C10000AC
:1000200007C1000005C1000003C1000001C10000BC
:10003000FFC00000FDC00000FBC00000F9C00000D0
:10004000F7C00000F5C00000F3C00000F1C00000E0
:10005000EFC00000EDC00000EBC00000E9C00000F0
:10006000E7C00000D4C2000001C30000E1C00000EE
:10007000DFC00000DDC00000DBC00000D9C0000010
:10008000D7C00000D5C00000D3C00000D1C0000020
:1000900064C3000091C30000CBC00000C9C00000D1
:1000A000C7C00000C5C00000C3C00000C1C0000040
:1000B000BFC00000BDC00000BBC00000B9C0000050
:1000C000B7C00000B5C00000B3C00000B1C0000060
:1000D000AFC00000ADC00000ABC00000A9C0000070
:1000E000A7C00000252D313273000A002D3E0068A4
:1000F000656C700084027265736574000000000016
:1001000000005265736574204D43550000000000E7
:1001100000000000000000000000000000000000DF
:10012000000080026C65646F6E000000000000003B
:100130004C4544206F6E00000000000000000000ED
:1001400000000000000000000000000000000000AF
:1001500082026C65646F66660000000000004C451A
:1001600044206F66660000000000000000000000F0
:1001700000000000000000000000000000009402E9
:100180006D6F6973740000000000000052656164C7
:10019000206D6F6973742066726F6D2044485478C7
:1001A000782073656E736F7200000000000000001D
:1001B000000000000000000000000000000000003F
:1001C000000000000000000000000000000000002F
:1001D0000000000000000000000054656D706572B2
:1001E000617475726520253564204D6F69737420C4
:1001F0002535640A000011241FBECFEFD1E2DEBF17
:10020000CDBF12E0A0E0B2E0ECE0FEE000E00BBF0A
:1002100002C007900D92A23AB107D9F723E0A2EAF3
:10022000B2E001C01D92A235B207E1F7CAD1ECC518
:10023000E7CECF92DF92EF92FF920F931F93CF936F
:10024000DF93FC01459154919A01EC0104EE10E01A
:100250008AEEE82E80E0F82E21C0BE016E5F7F4F4F
:100260008CE293E0E0D28CE293E09F938F931F9314
:100270000F93E0D22E96DF93CF93DCD2FF92EF92D2
:10028000D9D2F601859194919C018DB79EB70896BD
:100290000FB6F8949EBF0FBE8DBFE6016E019EE2C1
:1002A000C90ED11C232BC9F6DF91CF911F910F915D
:1002B000FF90EF90DF90CF9008951FD2811521E03D
:1002C0009207D9F30895CF93DF93CDB7DEB7609748
:1002D0000FB6F894DEBF0FBECDBFB82EA92E9CEE90
:1002E000C92E90E0D92EEE24E394F12CEC0EFD1EE5
:1002F000DF92CF929FD287010F900F9038016E1836
:100300007F08DBDF582E882E912C12D2F8015192F3
:100310008F01FDE08F16910469F4F701E60DF71DDA
:1003200010828AE005D26FEE70E0C70173D2892B8C
:1003300049F405C08AE08816910401F7EECF8B2DB1
:100340009A2D77DFEB2DFA2D859194919C010B2D41
:100350001A2D17C04801B8016E5F7F4FC7015AD2EE
:10036000025D1F4F892B49F4F40185919491FC01A2
:10037000009709F4BDCF0995BBCFF8018591949101
:100380009C01232B39F7B4CFE1E0F1E0808180615B
:100390008083E2E0F1E0808180618083089527E03E
:1003A00030E080E041E050E09091000194FFFCCF0C
:1003B00090EA9A95F1F79091000194FF07C0BA0175
:1003C000022E01C0660F0A94EAF7862B9091000175
:1003D00094FDFCCF2150310938F70895AF92BF92B8
:1003E000CF92DF92EF92FF920F931F93CF93DF9301
:1003F00000D000D01F92CDB7DEB77C016B01809199
:1004000002018F7E809302012FEF80EE90E0215059
:1004100080409040E1F700C00000809102018061BF
:1004200080930201E5E0EA95F1F700008091010177
:100430008F7E80930101F5EDFA95F1F70000809130
:10044000000184FF02C081E04BC08FE391E001977F
:10045000F1F700C000008091000184FFF4CFEFE3CA
:10046000F1E03197F1F700C000008E010F5F1F4FE0
:100470005E01F6E0AF0EB11C92DFF80181938F01AF
:10048000EA15FB05C9F78A819981890F9B81890F3C
:100490009C81890F909101019F7E90930101909121
:1004A00002019061909302019D81891318C0898196
:1004B0002A8130E0F4E68F9F200D311D1124F601D2
:1004C000318320838B812C8130E0F4E68F9F200DD7
:1004D000311D1124F7013183208380E001C082E0C7
:1004E0000F900F900F900F900F90DF91CF911F9171
:1004F0000F91FF90EF90DF90CF90BF90AF90089555
:100500002F9A08952F98089528E088E190E00FB67B
:10051000F894A895809360000FBE20936000FFCFF1
:1005200007D180E090E008950F931F93CF93DF935E
:1005300000D000D0CDB7DEB70AED11E025DFBE0157
:100540006D5F7F4FCE01019649DF8C818F938B8148
:100550008F938A818F9389818F931F930F936AD191
:100560002FEF83EC99E0215080409040E1F700C0EC
:100570000000C3D00F900F900F900F900F900F902E
:1005800081159140D9F20F900F900F900F90DF914D
:10059000CF911F910F91089588E10FB6F894809341
:1005A0006000109260000FBE80E190E08DD080E08E
:1005B00092E090934F0380934E03E6DE279A78945F
:1005C0000895EADF2F9A8EE092E057D18EE292E012
:1005D00054D18BE592E051D105B601FE03C084E70A
:1005E00092E04BD105B600FE03C083E892E045D10E
:1005F00005B603FE03C082E992E03FD185B7807E55
:1006000085BF84EF90E05FDE80E090E008951F9268
:100610000F920FB60F9211240BB60F922F938F9358
:100620009F93EF93FF938091C0009091C6008871D3
:10063000E091E902EF5FEF712091E802E21739F0F3
:10064000E093E902F0E0E451FD4F908301C082E0C5
:100650008093E702FF91EF919F918F912F910F90DF
:100660000BBE0F900FBE0F901F9018951F920F9208
:100670000FB60F9211240BB60F928F939F93EF93A7
:10068000FF939091EB028091EA02981769F0E09154
:10069000EA02EF5FEF71E093EA02F0E0E45FFC4F03
:1006A00080818093C60005C08091C1008F7D8093BA
:1006B000C100FF91EF919F918F910F900BBE0F9012
:1006C0000FBE0F901F9018951092EB021092EA0245
:1006D0001092E9021092E80297FF04C022E02093F2
:1006E000C0009F779093C5008093C40088E98093F1
:1006F000C10086E08093C20008959091E902809144
:10070000E802981789F0E091E802EF5FEF71E0935B
:10071000E802F0E0E451FD4F80819091E702392F2B
:1007200020E0280F311D02C020E031E0C90108950A
:100730009091EB029F5F9F712091EA029217E1F383
:10074000E92FF0E0E45FFC4F80839093EB0280910F
:10075000C10080628093C10008951F920F920FB66E
:100760000F9211240BB60F922F938F939F93EF93B9
:10077000FF938091C8009091CE008871E091A4020F
:10078000EF5FEF712091A302E21739F0E093A4022A
:10079000F0E0E955FD4F908301C082E08093A20212
:1007A000FF91EF919F918F912F910F900BBE0F9022
:1007B0000FBE0F901F9018951F920F920FB60F92B9
:1007C00011240BB60F928F939F93EF93FF93909109
:1007D000A6028091A502981769F0E091A502EF5F4B
:1007E000EF71E093A502F0E0E953FD4F8081809323
:1007F000CE0005C08091C9008F7D8093C900FF9114
:10080000EF919F918F910F900BBE0F900FBE0F90A5
:100810001F901895FB01DC018D9105908019011046
:10082000D9F3990B0895FB01DC0105900D9200208E
:10083000E1F708950F931F93CF93DF93CDB7DEB702
:10084000FE013796619171910EE413E0D8018D910C
:100850009C91DC0113962C911397286013962C938E
:10086000AF013AD0D801ED91FC912381277F2383FA
:10087000DF91CF911F910F9108950F931F93CF9305
:10088000DF938C01E0914E03F0914F03838181FF50
:100890001BC0C0E0D0E005C00995892B11F0CFEF57
:1008A000DFEFF80181918F0160914E0370914F034A
:1008B000DB011896ED91FC9119978111EDCF8AE03B
:1008C0000995892B09F402C0CFEFDFEFCE01DF914C
:1008D000CF911F910F9108952F923F924F925F9267
:1008E0006F927F928F929F92AF92BF92CF92DF9240
:1008F000EF92FF920F931F93CF93DF93CDB7DEB7A5
:100900002C970FB6F894DEBF0FBECDBF7C016B01F4
:100910008A01FC0117821682838181FFB9C1882474
:100920008394912C8C0E9D1EF7019381F60193FD0B
:10093000859193FF81916F01882309F4A5C18532C8
:1009400039F493FD859193FF81916F01853221F4F4
:10095000B70190E0CFD1E8CF512C312C20E02032EC
:10096000A8F48B3261F028F4803251F0833271F4B4
:100970000BC08D3239F0803349F4216028C02260E9
:10098000246025C0286023C0206121C027FD27C026
:10099000382F30533A3078F426FF06C0FAE05F9ED5
:1009A000300D1124532E13C08AE0389E300D1124CF
:1009B000332E20620CC08E3221F426FD65C12064E6
:1009C00006C08C3611F4206802C0883641F4F60166
:1009D00093FD859193FF81916F018111C0CF982F75
:1009E0009554933018F09052933028F40C5F1F4FB9
:1009F000FFE3F9830DC0833631F0833771F083351F
:100A000009F05AC022C0F801808189830E5F1F4F10
:100A100044244394512C540114C03801F2E06F0E69
:100A2000711CF801A080B18026FF03C0652D70E025
:100A300002C06FEF7FEFC5012C8751D12C018301DC
:100A40002C856FE7262E222217C03801F2E06F0EA8
:100A5000711CF801A080B18026FF03C0652D70E0F5
:100A600002C06FEF7FEFC5012C872ED12C012C85A2
:100A700050E8252E222A830123FC1AC005C0B701A5
:100A800080E290E037D13A94832D90E048165906E1
:100A9000B0F30EC0F50127FC859127FE81915F011F
:100AA000B70190E027D131103A94F1E04F1A510884
:100AB0004114510479F7E5C0843611F0893639F5CF
:100AC000F80127FF07C060817181828193810C5FEB
:100AD0001F4F08C060817181882777FD8095982F0E
:100AE0000E5F1F4F4FE6B42EB22297FF09C09095BC
:100AF0008095709561957F4F8F4F9F4FF0E8BF2A8B
:100B00002AE030E0A40122D1A82EA81842C08537DF
:100B100031F43FEEB32EB2222AE030E024C099EF48
:100B2000B92EB2228F36B9F020F4883509F0ACC066
:100B30000DC0803721F0883709F0A6C002C020E13F
:100B4000B22AB4FE0BC084E0B82A08C024FF09C052
:100B5000E6E0BE2A06C028E030E005C020E130E033
:100B600002C020E132E0F801B7FE07C06081718168
:100B7000828193810C5F1F4F06C06081718180E08C
:100B800090E00E5F1F4FA401E1D0A82EA818FFE748
:100B9000BF22B6FE0BC02B2D2E7FA51450F4B4FE41
:100BA0000AC0B2FC08C02B2D2E7E05C07A2C2B2D3E
:100BB00003C07A2C01C0752C24FF0DC0FE01EA0D84
:100BC000F11D8081803311F4297E09C022FF06C007
:100BD0007394739404C0822F867809F0739423FD74
:100BE00013C020FF0EC05A2C731458F4530C57181E
:100BF000732C07C0B70180E290E02C877BD0739400
:100C00002C857314B8F304C0731410F4371801C0A2
:100C1000312C24FF11C0B70180E390E02C876AD00B
:100C20002C8522FF1CC021FF03C088E590E002C094
:100C300088E790E0B7010CC0822F867881F021FD13
:100C400002C080E201C08BE227FD8DE2B70190E097
:100C500051D005C0B70180E390E04CD05A94A51460
:100C6000C8F3AA94F401EA0DF11DB701808190E068
:100C700041D0A110F6CF05C0B70180E290E03AD094
:100C80003A943110F9CF50CEF7012681378102C056
:100C90002FEF3FEFC9012C960FB6F894DEBF0FBEC1
:100CA000CDBFDF91CF911F910F91FF90EF90DF901B
:100CB000CF90BF90AF909F908F907F906F905F90FC
:100CC0004F903F902F900895FC0105906150704027
:100CD0000110D8F7809590958E0F9F1F0895FC0105
:100CE0006150704001900110D8F7809590958E0F5B
:100CF0009F1F08950F931F93CF93DF938C01EB01F8
:100D00008B8181FD03C00FEF1FEF1AC082FF0DC062
:100D10002E813F818C819D812817390764F4E881F9
:100D2000F9810193F983E88306C0E885F985802F6E
:100D30000995892B41F78E819F8101969F838E8330
:100D4000C801DF91CF911F910F910895FA01AA2751
:100D5000283051F1203181F1E8946F936E7F6E5FFE
:100D60007F4F8F4F9F4FAF4FB1E03ED0B4E03CD0AC
:100D7000670F781F891F9A1FA11D680F791F8A1F8F
:100D8000911DA11D6A0F711D811D911DA11D20D0F6
:100D900009F468943F912AE0269F11243019305DB0
:100DA0003193DEF6CF010895462F4770405D4193A1
:100DB000B3E00FD0C9F7F6CF462F4F70405D4A33EE
:100DC00018F0495D31FD4052419302D0A9F7EACFB6
:100DD000B4E0A6959795879577956795BA95C9F7E5
:100DE00000976105710508959B01AC010A2E0694D8
:100DF0005795479537952795BA95C9F7620F731F91
:0C0E0000841F951FA01D0895F894FFCFDB
:100E0C0000000003000000009002000000000A0A2D
:100E1C0041726475696E6F204D65676120436F6D1B
:100E2C00706F6E656E7420546573746572002D2D31
:100E3C002D2D2D2D2D2D2D2D2D2D2D2D2D2D2D2DD6
:100E4C002D2D2D2D2D2D2D2D2D2D2D2D2D2D2D2DC6
:100E5C002D2D2D2D2D2D2D2D2D2D00566572204E29
:100E6C006F7620323120323031332032333A353202
:100E7C003A34300045787465726E616C207265731B
:100E8C00657400506F776572206F6E2072657365A4
:100E9C0074005761746368646F672072657365745E
:020EAC00000044
:00000001FF
