:100000000C9427010C9444010C9444010C94440179
:100010000C9444010C9444010C9444010C9444014C
:100020000C9444010C9444010C9444010C9444013C
:100030000C9444010C94FB020C9444010C94440174
:100040000C94DC020C9444010C9446010C94720153
:100050000C9444010C9444010C9444010C9444010C
:100060000C9444010C94440168656C70002D3E00B2
:100070000A00252D31327300780338627474000051
:1000800000000000000038206269742074696D650A
:10009000722074657374000000000000000000000E
:1000A0000000000000004403313662747400000058
:1000B000000000003136206269742074696D657239
:1000C0002074657374000000000000000000000050
:1000D000000000001E03626C696E6B0000000000EF
:1000E0000000426C696E6B204C454400000000002B
:1000F0000000000000000000000000000000000000
:1001000000001E03726573657400000000000000AB
:100110005265736574206D63750000000000000077
:1001200000000000000000000000000000000000CF
:1001300000000000000000000000000000000000BF
:1001400000000000000000000000000000000000AF
:1001500000000000000000000000000000004578E2
:100160007465726E616C2072657365742064657469
:1001700065637465642E0A00576174636820646F58
:100180006720726573657420646574656374656463
:100190002E0A0042726F776E206F7574207265733D
:1001A00065742064657465637465642E0A00506F1D
:1001B000776572206F6E2072657365742064657454
:1001C00065637465642E0A000A41726475696E6F16
:1001D000204261736963206170706C696361746946
:1001E0006F6E0A00546869732074657374207769B0
:1001F0006C6C20626C696E6B20746865204C4544A1
:100200000A0054696D6572203120283136206269F8
:10021000742920746573740A0054686973207465C6
:1002200073742077696C6C20626C696E6B207468E3
:1002300065204C45440A0054696D657220302028C1
:1002400038206269742920746573740A00001124CF
:100250001FBECFEFD8E0DEBFCDBF11E0A0E0B1E020
:10026000E0EEF4E102C005900D92AE30B107D9F78F
:1002700011E0AEE0B1E001C01D92AB37B107E1F78C
:100280000E94B9030C946E0A0C9400001F920F9206
:100290000FB60F9211242F938F939F93EF93FF9399
:1002A0009091C0002091C600E0915001EF5FEF7186
:1002B00080915101E81711F482E008C0892F8871FC
:1002C000E0935001F0E0E25DFE4F20838093520105
:1002D000FF91EF919F918F912F910F900FBE0F90F3
:1002E0001F9018951F920F920FB60F9211248F93A3
:1002F0009F93EF93FF9390914E0180914F01981738
:1003000069F0E0914F01EF5FEF71E0934F01F0E092
:10031000E25FFE4F80818093C60005C08091C100DE
:100320008F7D8093C100FF91EF919F918F910F90EE
:100330000FBE0F901F9018959C0110924E011092C5
:100340004F01109250011092510197FF04C082E0BA
:100350008093C0003F773093C5002093C40088E9A4
:100360008093C10086E08093C2000895909150016F
:1003700080915101981719F420E031E012C0E0910A
:100380005101EF5FEF71E0935101F0E0E25DFE4F4C
:10039000308120915201922F80E0AC01430F511D1A
:1003A0009A01C9010895282F90914E019F5F9F7176
:1003B00080914F019817E1F3E92FF0E0E25FFE4FE3
:1003C000208390934E018091C10080628093C10090
:1003D0000895CF93DF93EC0103C021960E94D301CF
:1003E00088818823D1F7DF91CF910895CF93DF9350
:1003F000EC0102C00E94D301FE0121968491882362
:10040000C9F7DF91CF91089580915001209151015A
:1004100090E04F96821B91096FE170E00E943B07CC
:100420000895809151018093500108950E94B60172
:100430009C0181E020303807C9F3822F0895CF92C4
:10044000DF92EF92FF920F931F93CF93DF93FC0104
:1004500045915491EC0195E5C92E91E0D92E82E7A2
:10046000E82E80E0F82E00E710E025C0AC9785E587
:1004700091E0BE010E948D0700D000D0EDB7FEB71D
:10048000F282E182D482C3820E9494070F900F907F
:100490002C96EDB7FEB7D283C183A0960E94940735
:1004A000EDB7FEB7128301830E949407FE014591C8
:1004B00054910F900F90AE96452BC1F6DF91CF91DE
:1004C0001F910F91FF90EF90DF90CF9008954F9282
:1004D0005F926F927F928F929F92AF92BF92CF92D4
:1004E000DF92EF92FF920F931F93DF93CF93CDB7DD
:1004F000DEB760970FB6F894DEBF0FBECDBF4C01DC
:10050000FC012DE6422E20E0522E5E010894A11C33
:10051000B11C6590749000D0EDB7FEB75282418255
:100520000E949407EE24FF240F900F900E94160261
:10053000182FC82EDD240E94D301F501EE0DFF1DFA
:100540001083C7010196FDE0CF16D10431F02AE0F7
:10055000C216D10411F07C01E9CFEA0CFB1CF701B3
:1005600010828AE00E94D301C50168E670E00E9413
:100570008407892B19F4C4010E941F02A30184017E
:1005800017C078010E5F1F4FC501B8010E94840794
:10059000045D1F4F892B49F4F701859194910097D1
:1005A00009F4B9CFFC010995B6CFF80145915491F2
:1005B000452B09F4B0CFE5CF1F920F920FB60F92E3
:1005C00011248F939F9384E686BD809154018333D9
:1005D00030F085B190E2892785B91092540180915D
:1005E00054018F5F809354019F918F910F900FBEA4
:1005F0000F901F9018951F920F920FB60F92112413
:100600008F939F938FEF8093850086E08093840083
:10061000809153018F3130F01092530185B190E2F7
:10062000892785B9809153018F5F809353019F91F2
:100630008F910F900FBE0F901F9018952DE088E1BD
:1006400090E00FB6F894A895809360000FBE2093B9
:100650006000FFCF1F93CF93DF9310E2C0E9D1E09A
:100660000AC085B1812785B980ED97E0FE013197F9
:10067000F1F70197D9F70E94B6018050914089F3B4
:10068000DF91CF911F91089500D082E092E0EDB705
:10069000FEB7928381830E94940784EE91E0EDB7C8
:1006A000FEB7928381830E94940780918100887FA6
:1006B000809381008091810083608093810080918C
:1006C0006F00816080936F008FEF8093850086E0DC
:1006D000809384000F900F900E94B601805091404B
:1006E000D9F380916F008E7F80936F002D980895CD
:1006F00000D087E392E0EDB7FEB7928381830E943A
:10070000940789E192E0EDB7FEB7928381830E945E
:10071000940785B5887F85BD85B5856085BD809149
:100720006E00816080936E0084E686BD0F900F900E
:100730000E94B60180509140D9F380916E008E7F67
:1007400080936E002D98089588E10FB6F8948093F9
:100750006000109260000FBE259A80E190E00E9438
:100760009C0180E091E090937801809377017894E8
:1007700008950E94A40300D088EC91E0EDB7FEB785
:10078000928381830E9494070F900F9004B600FE1D
:100790000BC000D08EEA91E0EDB7FEB79283818363
:1007A0000E9494070F900F9004B602FE0BC000D079
:1007B00083E991E0EDB7FEB7928381830E949407AD
:1007C0000F900F9004B603FE0BC000D088E791E0B5
:1007D000EDB7FEB7928381830E9494070F900F902C
:1007E00004B601FE0BC000D08EE591E0EDB7FEB778
:1007F000928381830E9494070F900F9084B7807E2C
:1008000084BF88E790E00E946702FFCF1092B90092
:1008100088E48093B8000895982F84EA8093BC0000
:100820008091BC0087FFFCCF8091B900887F883021
:1008300021F0803111F081E008959093BB0084E8AD
:100840008093BC008091BC0087FFFCCF9091B900E1
:10085000987F983111F480E0089580E0903409F099
:1008600081E00895982F44EA34E824E94093BC00DD
:100870008091BC0087FFFCCF8091B900887F8830D1
:1008800011F0803199F79093BB003093BC008091B8
:10089000BC0087FFFCCF8091B900887F803211F0C7
:1008A000883539F42093BC008091BC0084FDFCCFD6
:1008B000DDCF08950E940C04089584E98093BC0064
:1008C0008091BC0084FDFCCF08958093BB0084E838
:1008D0008093BC008091BC0087FFFCCF8091B90061
:1008E00090E0887F883209F091E0892F089584ECA8
:1008F0008093BC008091BC0087FFFCCF8091BB003F
:10090000089584E88093BC008091BC0087FFFCCFF1
:100910008091BB0008952F923F92CF93DF93E10126
:1009200040E05AE014C0AF81B8859D012F5F3F4F72
:1009300038872F838985882319F0F901849102C0B3
:1009400011968C91459F402D1124490F8E839E81D5
:1009500090539A3040F3842FDF91CF913F902F90A6
:1009600008952F923F924F925F926F927F928F9253
:100970009F92AF92BF92CF92DF92EF92FF920F932E
:100980001F93DF93CF93CDB7DEB76F970FB6F89471
:10099000DEBF0FBECDBF6B8F7C8FFA0179018A87D6
:1009A000598748876C837D83882311F0449101C067
:1009B00040814F831EC2853209F005C2A885B985E2
:1009C000FD013196F987E8879A85992311F0849182
:1009D00002C011968C918F83853209F4F4C11E8276
:1009E0001B82188E1F8A0FC0E1E0EB83A885B985B2
:1009F000FD013196F987E887992311F0849102C0AF
:100A000011968C918F838F81803319F4F1E0F88FE8
:100A1000EDCF8D3219F481E08F8BE8CF8B3221F34B
:100A20001E010894211C311C0E948B048A838F8133
:100A30008E3219F02224552417C0A885B985FD01EE
:100A40003196F987E8878A85882311F0849102C05E
:100A500011968C918F831E010894211C311C0E94D9
:100A60008B04282E552453948F818C3611F080E00E
:100A70000FC0A885B985FD013196F987E8878A8579
:100A8000882311F0849102C011968C918F8381E0AC
:100A90001F81113709F4D6C0123750F4133609F408
:100AA000C4C0143609F4FAC0133509F094C109C062
:100AB000153709F4F3C0173709F4C4C0133709F028
:100AC0008AC162E0662E712C6E0C7F1CF70160817A
:100AD00071811982FB0104C089818F5F89833196FE
:100AE000133511F0808101C08491811181E0882348
:100AF00099F7552021F08981281608F429821436A7
:100B000011F01537B9F5F88DFF2349F18E8188234F
:100B100029F0EC81FD818DE2808307C08B818823E1
:100B2000C9F0EC81FD819BE290838C819D810196CF
:100B30009D838C838A81882369F00AC0EC81FD81C2
:100B400080E380838C819D8101969D838C838A8143
:100B500081508A839A818981891780F30BC09A8199
:100B6000992341F08E81882319F48B81882311F019
:100B700091509A8373019F89992369F010C0EC8189
:100B8000FD8180E280838C819D8101969D838C8391
:100B90008A8181508A839A818981891780F38F8124
:100BA000843629F0853719F0988D9923A1F48E8128
:100BB000882329F0EC81FD818DE2808307C08B8141
:100BC000882349F0EC81FD819BE290838C819D819B
:100BD00001969D838C8349819B0113C08F8183354E
:100BE00019F0F901808102C0F9018491EC81FD8145
:100BF00080838C819D8101969D838C8341502F5FE2
:100C00003F4F442359F70CC0EC81FD8180E2808383
:100C10008C819D8101969D838C838A8181508A83FA
:100C20009A818981891780F3D6C0F70180818B87EB
:100C3000F1E0F98382E090E0E80EF91EBE01655F05
:100C40007F4F99CF552031F4F701208082E090E06A
:100C5000E80EF91E1737F1F4EC81FD814B8D5C8DA8
:100C60006A819F01241B350B862F90E08217930722
:100C700014F41A820FC06E1B640F6A830BC0EC81E0
:100C8000FD8120828C819D8101969D838C838A8148
:100C900081508A838A81882391F79DC08823C9F077
:100CA00054E0652E712C6E0C7F1CF701C080D18042
:100CB000E280F380143609F5F7FE1FC0F1E0FE83F1
:100CC000F094E094D094C094C11CD11CE11CF11CA0
:100CD00014C0F70120813181143639F437FF05C083
:100CE000F1E0FE83309521953F4F42E0642E712C58
:100CF0006E0C7F1C6901EE24FF249AE0392E812CB2
:100D00008AEC982E8AE9A82E8BE3B82E00E05520B5
:100D100059F0321449F4EBE0F0E0EC0FFD1FE00F66
:100D2000F11D8EE280830F5FEBE0F0E0EC0FFD1F22
:100D3000E00FF11DFA8FE98FC701B601A5019401FB
:100D40000E944E07205DE98DFA8D20830F5FC5015B
:100D5000B4012AE030E040E050E00E944E07422E0D
:100D60003D8F4E8F5F8FF1E03F1629F40983BE015E
:100D7000655F7F4F17C0C701B601A50194010E94AE
:100D80004E07AC01CB01DA016C017D013A94242DB0
:100D90003D8D4E8D5F8DC901DA014C015D01B7CFEC
:100DA000B901092FFB018081803359F4023048F0EA
:100DB0009B012F5F3F4F902F9150FB0181818E321D
:100DC00079F709839CCEEC81FD8180838C819D81A4
:100DD00001969D838C83A885B985FD013196F9879D
:100DE000E8878A85882311F0849102C011968C913E
:100DF0008F838F81882309F0DECDEC81FD81108205
:100E00006F960FB6F894DEBF0FBECDBFCF91DF91C6
:100E10001F910F91FF90EF90DF90CF90BF90AF9018
:100E20009F908F907F906F905F904F903F902F900A
:100E30000895DF93CF93CDB7DEB7FE01399681E0F9
:100E40006D817E814F8158859F010E94B104CF91B1
:100E5000DF910895DF93CF93CDB7DEB7FE013996CA
:100E600080E06D817E814F8158859F010E94B10491
:100E7000CF91DF91089597FB092E07260AD077FDC1
:100E800004D02ED006D000201AF4709561957F4FC3
:100E90000895F6F7909581959F4F0895A1E21A2E37
:100EA000AA1BBB1BFD010DC0AA1FBB1FEE1FFF1F0E
:100EB000A217B307E407F50720F0A21BB30BE40B5E
:100EC000F50B661F771F881F991F1A9469F76095A5
:100ED0007095809590959B01AC01BD01CF0108955F
:100EE000AA1BBB1B51E107C0AA1FBB1FA617B70750
:100EF00010F0A61BB70B881F991F5A95A9F780956C
:100F00009095BC01CD010895FB01DC018D91059008
:100F100080190110D9F3990B0895FB01DC010590AC
:100F20000D920020E1F70895A0E0B0E0EAE9F7E0D3
:100F30000C94470AFE01359661917191A091770159
:100F4000B091780113968C911397886013968C93C7
:100F50008091770190917801AF010E94BA07E091EA
:100F60007701F09178012381277F23832096E2E0A7
:100F70000C94630AABE0B0E0E0ECF7E00C94370AC5
:100F80003C012B015A01FC0117821682838181FDED
:100F900003C06FEF7FEFC6C19AE0892E1E0108944F
:100FA000211C311CF3012381F20123FD859123FFD4
:100FB00081912F01882309F4B2C1853239F423FDD0
:100FC000859123FF81912F01853229F490E0B301AF
:100FD0000E94AD09E7CF982FFF24EE249924FFE16A
:100FE000FF15D0F09B3269F09C3228F4903259F012
:100FF000933291F40EC09D3249F0903369F441E090
:1010000024C052E0F52A84E0F82A28C098E0F92AA2
:1010100025C0E0E1FE2A22C0F7FC29C0892F8053B9
:101020008A3070F4F6FE05C0989C902C1124980E1E
:1010300015C0E89CE02C1124E80EF0E2FF2A0EC057
:101040009E3229F4F6FC6BC140E4F42A07C09C36BA
:1010500019F450E8F52A02C0983649F4F20123FD4C
:10106000959123FF91912F01992309F0B8CF892FF2
:101070008554833018F08052833038F444E050E0D7
:10108000A40EB51E5FE359830FC0933631F093373A
:1010900079F0933509F056C020C0F501808189832D
:1010A00042E050E0A40EB51E610101E010E012C064
:1010B000F501C080D180F6FC03C06FEF7FEF02C066
:1010C000692D70E042E050E0A40EB51EC6010E94FA
:1010D000A2098C015FE7F52214C0F501C080D18020
:1010E000F6FC03C06FEF7FEF02C0692D70E042E0B5
:1010F00050E0A40EB51EC6010E9497098C0150E86D
:10110000F52AF3FE07C01AC080E290E0B3010E9406
:10111000AD09EA948E2D90E008171907A8F30EC0C8
:10112000F601F7FC8591F7FE81916F0190E0B30124
:101130000E94AD09E110EA9401501040011511051B
:1011400079F7EAC0943611F0993669F5F7FE08C0D0
:10115000F501208131814281538184E090E00AC011
:10116000F501808191819C01442737FD4095542FE2
:1011700082E090E0A80EB91E9FE6F92257FF09C051
:1011800050954095309521953F4F4F4F5F4FE0E888
:10119000FE2ACA01B901A1012AE030E00E94D90962
:1011A000D82ED21840C0953729F41F2D1F7E2AE073
:1011B00030E01DC01F2D197F9F3661F0903720F45D
:1011C000983509F0ACC00FC0903739F0983709F066
:1011D000A6C004C028E030E00AC0106114FD14600D
:1011E00020E130E004C014FD166020E132E017FF7A
:1011F00008C0F501608171818281938144E050E0F3
:1012000008C0F50180819181BC0180E090E042E05E
:1012100050E0A40EB51EA1010E94D909D82ED21803
:101220008FE7F82EF122F6FE0BC05EEFF522D914FF
:1012300038F4F4FE07C0F2FC05C08FEEF82202C0BD
:101240001D2D01C0192DF4FE0DC0FE01ED0DF11D87
:101250008081803319F499EEF92208C01F5FF2FEF5
:1012600005C003C08F2D867809F01F5F0F2DF3FC9A
:1012700014C0F0FE0FC01E1510F09D2C0BC09D2C4D
:101280009E0C911A1E2D06C080E290E0B3010E94D0
:10129000AD091F5F1E15C0F304C01E1510F4E11A3E
:1012A00001C0EE2404FF0FC080E390E0B3010E9470
:1012B000AD0902FF1DC001FD03C088E790E00EC02C
:1012C00088E590E00BC0802F867891F001FF02C086
:1012D0008BE201C080E2F7FC8DE290E0B3010E9456
:1012E000AD0906C080E390E0B3010E94AD099A9475
:1012F000D914C0F3DA94F101ED0DF11D808190E075
:10130000B3010E94AD09DD20A9F706C080E290E09C
:10131000B3010E94AD09EA94EE20C1F743CEF30178
:1013200066817781CB012B96E2E10C94530AFC0194
:101330000590615070400110D8F7809590958E0F00
:101340009F1F0895FC016150704001900110D8F773
:10135000809590958E0F9F1F08950F931F93CF93A5
:10136000DF938C01EB018B8181FF1BC082FF0DC0DD
:101370002E813F818C819D812817390764F4E88193
:10138000F9810193F983E88306C0E885F985802F08
:101390000995892B31F48E819F8101969F838E83DD
:1013A00002C00FEF1FEFC801DF91CF911F910F9186
:1013B0000895FA01AA27283051F1203181F1E894EB
:1013C0006F936E7F6E5F7F4F8F4F9F4FAF4FB1E038
:1013D0003ED0B4E03CD0670F781F891F9A1FA11D33
:1013E000680F791F8A1F911DA11D6A0F711D811D34
:1013F000911DA11D20D009F468943F912AE0269FF9
:1014000011243019305D3193DEF6CF010895462F57
:101410004770405D4193B3E00FD0C9F7F6CF462F38
:101420004F70405D4A3318F0495D31FD40524193A1
:1014300002D0A9F7EACFB4E0A6959795879577955E
:101440006795BA95C9F700976105710508959B01E5
:10145000AC010A2E06945795479537952795BA956E
:10146000C9F7620F731F841F951FA01D08952F9247
:101470003F924F925F926F927F928F929F92AF9224
:10148000BF92CF92DF92EF92FF920F931F93CF9371
:10149000DF93CDB7DEB7CA1BDB0B0FB6F894DEBF08
:1014A0000FBECDBF09942A88398848885F846E842E
:1014B0007D848C849B84AA84B984C884DF80EE8078
:1014C000FD800C811B81AA81B981CE0FD11D0FB681
:1014D000F894DEBF0FBECDBFED010895F894FFCFA5
:0E14E0000000000300000000D301B601000070
:00000001FF
