:100000000C947F000C949E000C949E000C949E0017
:100010000C949E000C949E000C949E000C949E00E8
:100020000C949E000C949E000C949E000C949E00D8
:100030000C949E000C949E000C949E000C949E00C8
:100040000C949E000C949E000C949E000C949E00B8
:100050000C949E000C949E000C949E000C949E00A8
:100060000C949E000C94A0000C94D0000C949E0064
:100070000C949E000C949E000C949E000C949E0088
:100080000C949E000C949E000C949E000C949E0078
:100090000C9466010C9496010C949E000C949E00A6
:1000A0000C949E000C949E000C949E000C949E0058
:1000B0000C949E000C949E000C949E000C949E0048
:1000C0000C949E000C949E000C949E000C949E0038
:1000D0000C949E000C949E000C949E000C949E0028
:1000E0000C949E0048656C6C6F20576F726C642096
:1000F00041726475696E6F204D6567610A00112455
:100100001FBECFEFD1E2DEBFCDBF12E0A0E0B2E074
:10011000ECE2FAE000E00BBF02C007900D92AE30B7
:10012000B107D9F712E0AEE0B2E001C01D92AE39DE
:10013000B107E1F70E9438020C9414050C940000FA
:100140001F920F920FB60F920BB60F9211242F939E
:100150008F939F93EF93FF939091C0002091C600DF
:10016000E0915002EF5FEF7180915102E81711F4B6
:1001700082E008C0892F8871E0935002F0E0E25DD0
:10018000FD4F208380935202FF91EF919F918F91B9
:100190002F910F900BBE0F900FBE0F901F901895D0
:1001A0001F920F920FB60F920BB60F9211248F93DE
:1001B0009F93EF93FF9390914E0280914F02981777
:1001C00069F0E0914F02EF5FEF71E0934F02F0E0D2
:1001D000E25FFD4F80818093C60005C08091C10021
:1001E0008F7D8093C100FF91EF919F918F910F9030
:1001F0000BBE0F900FBE0F901F9018959C01109290
:100200004E0210924F02109250021092510297FF2C
:1002100004C082E08093C0003F773093C5002093F4
:10022000C40088E98093C10086E08093C2000895ED
:100230009091500280915102981719F420E031E01A
:1002400012C0E0915102EF5FEF71E0935102F0E0D4
:10025000E25DFD4F308120915202922F80E0AC018F
:10026000430F511D9A01C9010895282F90914E0204
:100270009F5F9F7180914F029817E1F3E92FF0E0A3
:10028000E25FFD4F208390934E028091C100806217
:100290008093C1000895CF93DF93EC0103C02196B2
:1002A0000E94350188818823D1F7DF91CF9108958D
:1002B000CF93DF93EC0102C00E943501FE0121962D
:1002C00084918823C9F7DF91CF9108951F920F92EF
:1002D0000FB60F920BB60F9211242F938F939F930B
:1002E000EF93FF939091C8002091CE00E09195028A
:1002F000EF5FEF7180919602E81711F482E008C079
:10030000892F8871E0939502F0E0ED58FD4F20832E
:1003100080939702FF91EF919F918F912F910F9072
:100320000BBE0F900FBE0F901F9018951F920F924B
:100330000FB60F920BB60F9211248F939F93EF93EA
:10034000FF939091930280919402981769F0E09145
:100350009402EF5FEF71E0939402F0E0ED5AFD4FED
:1003600080818093CE0005C08091C9008F7D8093ED
:10037000C900FF91EF919F918F910F900BBE0F904D
:100380000FBE0F901F9018959C011092930210922F
:100390009402109295021092960297FF04C082E098
:1003A0008093C8003F773093CD002093CC0088E93C
:1003B0008093C90086E08093CA00089590919502C9
:1003C00080919602981719F420E031E012C0E09174
:1003D0009602EF5FEF71E0939602F0E0ED58FD4F6B
:1003E000308120919702922F80E0AC01430F511D84
:1003F0009A01C9010895282F909193029F5F9F71E0
:10040000809194029817E1F3E92FF0E0ED5AFD4F47
:100410002083909393028091C90080628093C900E9
:100420000895CF93DF93EC0103C021960E94FB0156
:1004300088818823D1F7DF91CF910895CF93DF93FF
:10044000EC0102C00E94FB01FE01219684918823E9
:10045000C9F7DF91CF91089580E190E00E94FE00FE
:1004600080E092E090939B0280939A0278940895A2
:100470000E942C0200D084EE90E0EDB7FEB792838C
:1004800081830E944B020F900F90FFCF0E94350195
:1004900080E090E00895DF93CF93CDB7DEB7FE0103
:1004A000359661917191A0919A02B0919B02139639
:1004B0008C911397886013968C9380919A029091F7
:1004C0009B02AF010E946E02E0919A02F0919B02A2
:1004D0002381277F2383CF91DF9108952F923F922D
:1004E0004F925F926F927F928F929F92AF92BF9244
:1004F000CF92DF92EF92FF920F931F93DF93CF93F0
:10050000CDB7DEB72B970FB6F894DEBF0FBECDBFC9
:100510003C012B015A01FC0117821682838181FD67
:1005200003C06FEF7FEFC6C19AE0892E1E010894C9
:10053000211C311CF3012381F20123FD859123FF4E
:1005400081912F01882309F4B2C1853239F423FD4A
:10055000859123FF81912F01853229F490E0B30129
:100560000E948A04E7CF982FFF24EE249924FFE10C
:10057000FF15D0F09B3269F09C3228F4903259F08C
:10058000933291F40EC09D3249F0903369F441E00A
:1005900024C052E0F52A84E0F82A28C098E0F92A1D
:1005A00025C0E0E1FE2A22C0F7FC29C0892F805334
:1005B0008A3070F4F6FE05C0989C902C1124980E99
:1005C00015C0E89CE02C1124E80EF0E2FF2A0EC0D2
:1005D0009E3229F4F6FC6BC140E4F42A07C09C3635
:1005E00019F450E8F52A02C0983649F4F20123FDC7
:1005F000959123FF91912F01992309F0B8CF892F6D
:100600008554833018F08052833038F444E050E051
:10061000A40EB51E5FE359830FC0933631F09337B4
:1006200079F0933509F056C020C0F50180818983A7
:1006300042E050E0A40EB51E610101E010E012C0DE
:10064000F501C080D180F6FC03C06FEF7FEF02C0E0
:10065000692D70E042E050E0A40EB51EC6010E9474
:100660007F048C015FE7F52214C0F501C080D180C2
:10067000F6FC03C06FEF7FEF02C0692D70E042E02F
:1006800050E0A40EB51EC6010E9474048C0150E80F
:10069000F52AF3FE07C01AC080E290E0B3010E9481
:1006A0008A04EA948E2D90E008171907A8F30EC06B
:1006B000F601F7FC8591F7FE81916F0190E0B3019F
:1006C0000E948A04E110EA940150104001151105BE
:1006D00079F7EAC0943611F0993669F5F7FE08C04B
:1006E000F501208131814281538184E090E00AC08C
:1006F000F501808191819C01442737FD4095542F5D
:1007000082E090E0A80EB91E9FE6F92257FF09C0CB
:1007100050954095309521953F4F4F4F5F4FE0E802
:10072000FE2ACA01B901A1012AE030E00E94B60404
:10073000D82ED21840C0953729F41F2D1F7E2AE0ED
:1007400030E01DC01F2D197F9F3661F0903720F4D7
:10075000983509F0ACC00FC0903739F0983709F0E0
:10076000A6C004C028E030E00AC0106114FD146087
:1007700020E130E004C014FD166020E132E017FFF4
:1007800008C0F501608171818281938144E050E06D
:1007900008C0F50180819181BC0180E090E042E0D9
:1007A00050E0A40EB51EA1010E94B604D82ED218A6
:1007B0008FE7F82EF122F6FE0BC05EEFF522D9147A
:1007C00038F4F4FE07C0F2FC05C08FEEF82202C038
:1007D0001D2D01C0192DF4FE0DC0FE01ED0DF11D02
:1007E0008081803319F499EEF92208C01F5FF2FE70
:1007F00005C003C08F2D867809F01F5F0F2DF3FC15
:1008000014C0F0FE0FC01E1510F09D2C0BC09D2CC7
:100810009E0C911A1E2D06C080E290E0B3010E944A
:100820008A041F5F1E15C0F304C01E1510F4E11AE0
:1008300001C0EE2404FF0FC080E390E0B3010E94EA
:100840008A0402FF1DC001FD03C088E790E00EC0CE
:1008500088E590E00BC0802F867891F001FF02C000
:100860008BE201C080E2F7FC8DE290E0B3010E94D0
:100870008A0406C080E390E0B3010E948A049A943F
:10088000D914C0F3DA94F101ED0DF11D808190E0EF
:10089000B3010E948A04DD20A9F706C080E290E03F
:1008A000B3010E948A04EA94EE20C1F743CEF3011B
:1008B00066817781CB012B960FB6F894DEBF0FBE11
:1008C000CDBFCF91DF911F910F91FF90EF90DF90FF
:1008D000CF90BF90AF909F908F907F906F905F90E0
:1008E0004F903F902F900895FC010590615070400B
:1008F0000110D8F7809590958E0F9F1F0895FC01E9
:100900006150704001900110D8F7809590958E0F3E
:100910009F1F08950F931F93CF93DF938C01EB01DB
:100920008B8181FF1BC082FF0DC02E813F818C8196
:100930009D812817390764F4E881F9810193F983CF
:10094000E88306C0E885F985802F0995892B31F465
:100950008E819F8101969F838E8302C00FEF1FEFD0
:10096000C801DF91CF911F910F910895FA01AA2735
:10097000283051F1203181F1E8946F936E7F6E5FE2
:100980007F4F8F4F9F4FAF4FB1E03ED0B4E03CD090
:10099000670F781F891F9A1FA11D680F791F8A1F73
:1009A000911DA11D6A0F711D811D911DA11D20D0DA
:1009B00009F468943F912AE0269F11243019305D94
:1009C0003193DEF6CF010895462F4770405D419385
:1009D000B3E00FD0C9F7F6CF462F4F70405D4A33D2
:1009E00018F0495D31FD4052419302D0A9F7EACF9A
:1009F000B4E0A6959795879577956795BA95C9F7C9
:100A000000976105710508959B01AC010A2E0694BB
:100A10005795479537952795BA95C9F7620F731F74
:0C0A2000841F951FA01D0895F894FFCFBF
:0E0A2C00000000030000000046020000000071
:00000001FF
