:100000000C94A2000C94BF000C94BF000C94BF0091
:100010000C94BF000C94BF000C94BF000C94BF0064
:100020000C94BF000C94BF000C94BF000C94BF0054
:100030000C94BF000C948F020C94BF000C94BF0072
:100040000C949C030C94BF000C94C1000C94ED0024
:100050000C94BF000C94BF000C94BF000C94BF0024
:100060000C94BF000C94BF002D3E0068656C7000BE
:1000700068656C70002D3E000A00252D313273003A
:100080008E02746573740000000000000000746547
:100090007374000000000000000000000000000079
:1000A0000000000000000000000000000000000050
:1000B0000000000000000000000000000000000040
:1000C0000000000000000000000000000000000030
:1000D000000000000000000000000000536F667484
:1000E000776172652074696D65722034730A0053FC
:1000F0006F6674776172652074696D657220327302
:100100000A00536F6674776172652074696D657259
:100110002031730A000A2D2D2D2D2D204576656E78
:100120007451756575652F427574746F6E205465D2
:100130007374657220766572202573202D2D2D2D08
:100140002D0A000011241FBECFEFD8E0DEBFCDBFC7
:1001500011E0A0E0B1E0E8ECF0E102C005900D9202
:10016000A037B107D9F712E0A0E7B1E001C01D92B6
:10017000AA30B107E1F70E9403030C9462080C94C3
:1001800000001F920F920FB60F9211242F938F939E
:100190009F93EF93FF939091C0002091C600E09150
:1001A000B201EF5FEF718091B301E81711F482E0C3
:1001B00008C0892F8871E093B201F0E0E057FE4F4C
:1001C00020838093B401FF91EF919F918F912F91A4
:1001D0000F900FBE0F901F9018951F920F920FB6A1
:1001E0000F9211248F939F93EF93FF939091B001FF
:1001F0008091B101981769F0E091B101EF5FEF7163
:10020000E093B101F0E0E059FE4F80818093C60099
:1002100005C08091C1008F7D8093C100FF91EF9157
:100220009F918F910F900FBE0F901F9018959C017A
:100230001092B0011092B1011092B2011092B3016C
:1002400097FF04C082E08093C0003F773093C500E1
:100250002093C40088E98093C10086E08093C200A7
:1002600008959091B2018091B301981719F420E09C
:1002700031E012C0E091B301EF5FEF71E093B301A1
:10028000F0E0E057FE4F30812091B401922F80E0E2
:10029000AC01430F511D9A01C9010895282F909177
:1002A000B0019F5F9F718091B1019817E1F3E92F31
:1002B000F0E0E059FE4F20839093B0018091C1009F
:1002C00080628093C1000895CF93DF93EC0103C057
:1002D00021960E944E0188818823D1F7DF91CF912A
:1002E0000895CF93DF93EC0102C00E944E01FE01FE
:1002F000219684918823C9F7DF91CF910895809149
:10030000B2012091B30190E04F96821B91096FE1F9
:1003100070E00E941C0508958091B3018093B201A2
:1003200008959093BB018093BA011092DC01089567
:100330000E9431019C0181E020303807C9F3822FEF
:100340000895CF93DF930E943101EC0181E0C0302A
:10035000D807C9F38C2F0E944E01E091DC01EF5FBA
:10036000E093DC01F0E0E454FE4FC083ECCFCF9289
:10037000DF92EF92FF920F931F93CF93DF93FC01D5
:1003800045915491EC019CEBC92E91E0D92E8AE75E
:10039000E82E80E0F82E08E710E025C0AC978CEB43
:1003A00091E0BE010E944C0500D000D0EDB7FEB731
:1003B000F282E182D482C3820E9453050F900F9093
:1003C0002C96EDB7FEB7D283C183A0960E94530549
:1003D000EDB7FEB7128301830E945305FE014591DC
:1003E00054910F900F90AE96452BC1F6DF91CF91AF
:1003F0001F910F91FF90EF90DF90CF9008958CEBBD
:1004000091E06BE670E00E944305892B31F4809106
:10041000BA019091BB010E94B70100D088E690E03C
:10042000EDB7FEB7928381830E9453050F900F9022
:1004300008954F925F926F927F928F929F92AF92A8
:10044000BF92CF92DF92EF92FF920F931F93DF93B1
:10045000CF93CDB7DEB760970FB6F894DEBF0FBE6F
:10046000CDBF4C01FC0125E7422E20E0522E5E015B
:100470000894A11CB11C6590749000D0EDB7FEB734
:10048000528241820E945305EE24FF240F900F9068
:100490000E949801182FC82EDD240E944E01F501FC
:1004A000EE0DFF1D1083C7010196FDE0CF16D104AC
:1004B00031F02AE0C216D10411F07C01E9CFEA0C38
:1004C000FB1CF70110828AE00E944E01C50160E723
:1004D00070E00E944305892B19F4C4010E94B70102
:1004E000A301840117C078010E5F1F4FC501B80139
:1004F0000E944305045D1F4F892B49F4F701859144
:100500009491009709F4B9CFFC010995B6CFF80191
:1005100045915491452B09F4B0CFE5CF08951F9232
:100520000F920FB60F9211248F9382EC8093850067
:1005300087EF809384008F910F900FBE0F901F90D4
:100540001895EF92FF920F931F93259A83E390E003
:100550000E94170182E691E09093070280930602C1
:1005600085B5887F85BD85B5856085BDEEE6F0E003
:1005700080818160808384E686BDE1E8F0E080814F
:10058000887F8083808185608083EFE6F0E08081D2
:100590008160808382EC8093850087EF8093840064
:1005A00083E290E09093FD018093FC0184E08093CE
:1005B000FE018CEF91E065E270E00E94730400E0C0
:1005C00012E0C8010E94D7048DEDE82E81E0F82EDC
:1005D000C7010E94D70482EE91E00E94D704C801AF
:1005E00064E670E00E94DD04C70168EC70E00E94E0
:1005F000DD0480E890E00E94910178941F910F91B2
:10060000FF90EF9008958F929F92AF92BF92CF92FA
:10061000DF92EF92FF920F931F93DF93CF9300D05F
:10062000CDB7DEB786EE91E00E9403040E94A102DE
:1006300000D000D085E191E0EDB7FEB792838183D1
:1006400080E091E0948383830E9453050F900F9084
:100650000F900F905E010894A11CB11C30E2832E14
:100660009924939422E0C22E21E0D22E9FEEE92E0F
:1006700090E0F92E0CED10E086EE91E0B5010E94BD
:1006800038048981843009F44BC0853048F48130C6
:10069000B9F08130C0F08230A9F1833069F738C0F9
:1006A0008F31B1F0803218F4853031F705C08032D7
:1006B000C9F0813209F719C081E00E94FF01DCCF47
:1006C00084E091E002C082E191E00E947905D4CFFC
:1006D00080E291E00E94790585B1882585B9109264
:1006E000E101CACF85E391E0F0CF8BE491E00E9475
:1006F00079059092E10182EE91E060E971E00E945B
:10070000E504BACF00D0EDB7FEB7D282C18205C0F2
:1007100000D0EDB7FEB7F282E1820E94530509C016
:1007200000D0EDB7FEB7128301830E9453051092EB
:10073000E1010F900F90A0CF1F920F920FB60F9272
:1007400011242F933F934F935F936F937F938F93D6
:100750009F93AF93BF93EF93FF9384E686BD81E0B1
:100760008093B60186EE91E06CEF71E04EE10E945D
:10077000C1048091E101882379F08091B5018E3127
:1007800031F485B190E2892785B91092B501809145
:10079000B5018F5F8093B50180E092E066EE71E075
:1007A00042E00E94F5048DED91E066EE71E043E0D9
:1007B0000E94F50482EE91E066EE71E044E00E9452
:1007C000F50486EE91E065E00E94A101FF91EF91B2
:1007D000BF91AF919F918F917F916F915F914F9159
:1007E0003F912F910F900FBE0F901F901895FC0115
:1007F000148A158A0895DC01FB0180818C93818124
:1008000011968C930895FC01148A158A08956AE064
:100810000E941005892F0895CF93DF93DC01EB012F
:1008200055968C9155978A3001F1F8945496EC9135
:100830005497F0E0EE0FFF1FEA0FFB1F88818083C3
:100840008981818355968C9155978F5F55968C93AE
:10085000559754968C9154978F5F54968C935497D8
:100860008A3010F054961C927894DF91CF910895BD
:100870000F931F93CF93DF93EC018B018D89882316
:10088000E9F3F8942D898C8990E00A96821B9109EE
:100890006AE070E00E941C05FC01EE0FFF1FEC0FE8
:1008A000FD1F8081D8018C93818111968C938D8955
:1008B00081508D8B7894DF91CF911F910F91089586
:1008C000DF93CF9300D0CDB7DEB76983BE016F5FF2
:1008D0007F4F0E940C040F900F90CF91DF910895ED
:1008E000FC0185890895DC01FB01208181E090E015
:1008F00012960C90129702C0880F991F0A94E2F783
:10090000282B208313961C92089520E0FC018381FC
:10091000823009F421E0822F0895DC01ED91FC91F1
:100920001197208181E090E012960C90129702C0FE
:10093000880F991F0A94E2F7282313968C91139736
:10094000222381F48A3F20F48F5F13968C931397B0
:1009500013968C91823011F481E00895883C79F4EB
:1009600083E00895813021F413961C9282E008956B
:10097000823028F081E013968C9380E0089580E027
:1009800008951F93CF93DF93EC01CB01142F0E94A6
:100990008D04180F1093B801882329F0CE0168EB5D
:1009A00071E00E940C04DF91CF911F910895FC012A
:1009B00011821082138212820895FC01F8947383CD
:1009C00062837183608378940895FC01F8941382A4
:1009D00012827183608378940895FC01F8941382E5
:1009E00012821182108278940895CF93DF93EC01E4
:1009F00088819981009789F0019799838883892B51
:100A000061F4CB01642F40E050E00E9460048A81D1
:100A10009B81009711F099838883DF91CF9108958E
:100A2000991B79E004C0991F961708F0961B881F40
:100A30007A95C9F78095089597FB092E07260AD065
:100A400077FD04D00CD006D000201AF47095619583
:100A50007F4F0895F6F7909581959F4F0895AA1BB3
:100A6000BB1B51E107C0AA1FBB1FA617B70710F099
:100A7000A61BB70B881F991F5A95A9F780959095CB
:100A8000BC01CD010895FB01DC018D910590801919
:100A90000110D9F3990B0895FB01DC0105900D922B
:100AA0000020E1F70895A0E0B0E0E9E5F5E00C945E
:100AB0003B08FE01359661917191A0910602B091BB
:100AC000070213968C911397886013968C938091EC
:100AD000060290910702AF010E94AE05E091060266
:100AE000F09107022381277F23832096E2E00C9474
:100AF00057080F931F93CF93DF938C01E091060269
:100B0000F0910702838181FF21C0C0E0D0E00DC0D9
:100B1000E0910602F091070220853185BF01F901BD
:100B20000995892B11F0CFEFDFEFF80181918F014B
:100B3000882371F7E0910602F09107022085318544
:100B40008AE0BF01F9010995892B11F0CFEFDFEFA2
:100B5000CE01DF91CF911F910F910895ABE0B0E0EE
:100B6000E4EBF5E00C942B083C012B015A01FC014D
:100B700017821682838181FD03C06FEF7FEFC6C1AC
:100B80009AE0892E1E010894211C311CF301238157
:100B9000F20123FD859123FF81912F01882309F420
:100BA000B2C1853239F423FD859123FF81912F0154
:100BB000853229F490E0B3010E94A107E7CF982F76
:100BC000FF24EE249924FFE1FF15D0F09B3269F059
:100BD0009C3228F4903259F0933291F40EC09D3239
:100BE00049F0903369F441E024C052E0F52A84E0F2
:100BF000F82A28C098E0F92A25C0E0E1FE2A22C0A0
:100C0000F7FC29C0892F80538A3070F4F6FE05C0A6
:100C1000989C902C1124980E15C0E89CE02C11246F
:100C2000E80EF0E2FF2A0EC09E3229F4F6FC6BC1FA
:100C300040E4F42A07C09C3619F450E8F52A02C0B3
:100C4000983649F4F20123FD959123FF91912F01EC
:100C5000992309F0B8CF892F8554833018F080523A
:100C6000833038F444E050E0A40EB51E5FE35983AE
:100C70000FC0933631F0933779F0933509F056C0B1
:100C800020C0F5018081898342E050E0A40EB51EAA
:100C9000610101E010E012C0F501C080D180F6FCD6
:100CA00003C06FEF7FEF02C0692D70E042E050E0BB
:100CB000A40EB51EC6010E9496078C015FE7F522BF
:100CC00014C0F501C080D180F6FC03C06FEF7FEF48
:100CD00002C0692D70E042E050E0A40EB51EC601CE
:100CE0000E948B078C0150E8F52AF3FE07C01AC05A
:100CF00080E290E0B3010E94A107EA948E2D90E07B
:100D000008171907A8F30EC0F601F7FC8591F7FE46
:100D100081916F0190E0B3010E94A107E110EA9474
:100D2000015010400115110579F7EAC0943611F011
:100D3000993669F5F7FE08C0F501208131814281BD
:100D4000538184E090E00AC0F501808191819C018B
:100D5000442737FD4095542F82E090E0A80EB91E3D
:100D60009FE6F92257FF09C050954095309521958F
:100D70003F4F4F4F5F4FE0E8FE2ACA01B901A10182
:100D80002AE030E00E94CD07D82ED21840C0953717
:100D900029F41F2D1F7E2AE030E01DC01F2D197F72
:100DA0009F3661F0903720F4983509F0ACC00FC041
:100DB000903739F0983709F0A6C004C028E030E039
:100DC0000AC0106114FD146020E130E004C014FD7D
:100DD000166020E132E017FF08C0F50160817181E3
:100DE0008281938144E050E008C0F50180819181C7
:100DF000BC0180E090E042E050E0A40EB51EA101ED
:100E00000E94CD07D82ED2188FE7F82EF122F6FED9
:100E10000BC05EEFF522D91438F4F4FE07C0F2FCE3
:100E200005C08FEEF82202C01D2D01C0192DF4FE61
:100E30000DC0FE01ED0DF11D8081803319F499EE96
:100E4000F92208C01F5FF2FE05C003C08F2D86780F
:100E500009F01F5F0F2DF3FC14C0F0FE0FC01E152C
:100E600010F09D2C0BC09D2C9E0C911A1E2D06C0BF
:100E700080E290E0B3010E94A1071F5F1E15C0F33E
:100E800004C01E1510F4E11A01C0EE2404FF0FC0C7
:100E900080E390E0B3010E94A10702FF1DC001FDA5
:100EA00003C088E790E00EC088E590E00BC0802F7B
:100EB000867891F001FF02C08BE201C080E2F7FC6E
:100EC0008DE290E0B3010E94A10706C080E390E0AC
:100ED000B3010E94A1079A94D914C0F3DA94F101E6
:100EE000ED0DF11D808190E0B3010E94A107DD208E
:100EF000A9F706C080E290E0B3010E94A107EA943E
:100F0000EE20C1F743CEF30166817781CB012B96AA
:100F1000E2E10C944708FC0105906150704001101B
:100F2000D8F7809590958E0F9F1F0895FC01615012
:100F3000704001900110D8F7809590958E0F9F1FFB
:100F400008950F931F93CF93DF938C01EB018B8157
:100F500081FF1BC082FF0DC02E813F818C819D814E
:100F60002817390764F4E881F9810193F983E8834C
:100F700006C0E885F985802F0995892B31F48E818B
:100F80009F8101969F838E8302C00FEF1FEFC801E0
:100F9000DF91CF911F910F910895FA01AA27283070
:100FA00051F1203181F1E8946F936E7F6E5F7F4F36
:100FB0008F4F9F4FAF4FB1E03ED0B4E03CD0670FB2
:100FC000781F891F9A1FA11D680F791F8A1F911D05
:100FD000A11D6A0F711D811D911DA11D20D009F455
:100FE00068943F912AE0269F11243019305D319397
:100FF000DEF6CF010895462F4770405D4193B3E080
:101000000FD0C9F7F6CF462F4F70405D4A3318F026
:10101000495D31FD4052419302D0A9F7EACFB4E0D7
:10102000A6959795879577956795BA95C9F700978F
:101030006105710508959B01AC010A2E0694579530
:10104000479537952795BA95C9F7620F731F841F87
:10105000951FA01D08952F923F924F925F926F921D
:101060007F928F929F92AF92BF92CF92DF92EF9238
:10107000FF920F931F93CF93DF93CDB7DEB7CA1BB9
:10108000DB0B0FB6F894DEBF0FBECDBF09942A88E4
:10109000398848885F846E847D848C849B84AA848C
:1010A000B984C884DF80EE80FD800C811B81AA8119
:1010B000B981CE0FD11D0FB6F894DEBF0FBECDBFE4
:0810C000ED010895F894FFCF43
:1010C800302E320054696D65722030206576656E69
:1010D800740054696D65722031206576656E740000
:1010E800427574746F6E20707265737365642065E1
:1010F80076656E7400427574746F6E2072656C65E7
:1011080061736564206576656E7400427574746FEA
:101118006E20686F6C6420646F776E206576656EEC
:10112800740000000003000000004E0131010000BF
:00000001FF
