:100000000C94AB000C94C8000C94C8000C94C8006D
:100010000C94C8000C94C8000C94C8000C94C80040
:100020000C94C8000C94C8000C94C8000C94C80030
:100030000C94C8000C94C8000C94C8000C94C80020
:100040000C94C8000C94C8000C94CA000C94F600E0
:100050000C94C8000C94C8000C94C8000C94C80000
:100060000C94C8000C94C80068656C70002D3E00AC
:100070000A00252D313273000A2D2D2D2D2D2053F0
:1000800074617274696E672054656D706572617415
:1000900075724D6F6E69746F72202D2D2D2D2D0A86
:1000A000004C43443A204B616C6C650A0054657304
:1000B00074696E67204C43440A0025332E31642056
:1000C00025332E31642025332E31642025332E3103
:1000D00064202025332E31642025332E31642025E1
:1000E000332E31642025332E3164202025332E31E8
:1000F000642025332E31642025332E3164202533AE
:100100002E3164200A000A2020202020204375720E
:1001100072656E74202020202020202020202020A6
:10012000202020204D696E2020202020202020200B
:100130002020202020202020204D61780A00253317
:100140002E316400202D2D2D0054656D70204D6FD3
:100150006E69746F720011241FBECFEFD4E0DEBF52
:10016000CDBF11E0A0E0B1E0E2E0F6E202C0059010
:100170000D92AC31B107D9F712E0ACE1B1E001C0AA
:100180001D92A536B107E1F70E94F0040C94FF120E
:100190000C9400001F920F920FB60F9211242F9310
:1001A0008F939F93EF93FF939091C0002091C6008F
:1001B000E0915E01EF5FEF7180915F01E81711F44C
:1001C00082E008C0892F8871E0935E01F0E0E45C72
:1001D000FE4F208380936001FF91EF919F918F915B
:1001E0002F910F900FBE0F901F9018951F920F9296
:1001F0000FB60F9211248F939F93EF93FF939091DB
:100200005C0180915D01981769F0E0915D01EF5FFD
:10021000EF71E0935D01F0E0E45EFE4F808180933A
:10022000C60005C08091C1008F7D8093C100FF9101
:10023000EF919F918F910F900FBE0F901F90189587
:100240009C0110925C0110925D0110925E0110926F
:100250005F0197FF04C082E08093C0003F77309336
:10026000C5002093C40088E98093C10086E0809394
:10027000C200089590915E0180915F01981719F472
:1002800020E031E012C0E0915F01EF5FEF71E09399
:100290005F01F0E0E45CFE4F308120916001922F1D
:1002A00080E0AC01430F511D9A01C9010895282F28
:1002B00090915C019F5F9F7180915D019817E1F3C0
:1002C000E92FF0E0E45EFE4F208390935C01809183
:1002D000C10080628093C1000895CF93DF93EC0149
:1002E00003C021960E94570188818823D1F7DF91AE
:1002F000CF910895CF93DF93EC0102C00E94570184
:10030000FE01219684918823C9F7DF91CF9108954A
:1003100080915E0120915F0190E04F96821B9109D0
:100320006FE170E00E94A30F089580915F018093B8
:100330005E0108950E943A019C0181E02030380757
:10034000C9F3822F0895CF92DF92EF92FF920F931D
:100350001F93CF93DF93FC0145915491EC0191EBF6
:10036000C92E91E0D92E82E7E82E80E0F82E00E732
:1003700010E025C0AC9781EB91E0BE010E94E10F37
:1003800000D000D0EDB7FEB7F282E182D482C38202
:100390000E94FD0F0F900F902C96EDB7FEB7D28301
:1003A000C183A0960E94FD0FEDB7FEB712830183B3
:1003B0000E94FD0FFE01459154910F900F90AE9653
:1003C000452BC1F6DF91CF911F910F91FF90EF90D8
:1003D000DF90CF9008954F925F926F927F928F92AD
:1003E0009F92AF92BF92CF92DF92EF92FF920F93C4
:1003F0001F93DF93CF93CDB7DEB760970FB6F89416
:10040000DEBF0FBECDBF4C01FC012DE6422E20E029
:10041000522E5E010894A11CB11C6590749000D00E
:10042000EDB7FEB7528241820E94FD0FEE24FF24F9
:100430000F900F900E949A01182FC82EDD240E9461
:100440005701F501EE0DFF1D1083C7010196FDE078
:10045000CF16D10431F02AE0C216D10411F07C018C
:10046000E9CFEA0CFB1CF70110828AE00E945701D9
:10047000C50168E670E00E94D80F892B19F4C40109
:100480000E94A301A301840117C078010E5F1F4FD2
:10049000C501B8010E94D80F045D1F4F892B49F494
:1004A000F70185919491009709F4B9CFFC01099562
:1004B000B6CFF80145915491452B09F4B0CFE5CF63
:1004C0000F931F93CF93DF9300D08DEA90E0EDB7A9
:1004D000FEB7928381830E94FD0F0F900F9000E979
:1004E00011E0C1EAD0E00E94A1050E94A50580E0CC
:1004F00091E00E94C90588EE93E0F8013197F1F789
:100500000197D9F700D0EDB7FEB7D283C1830E941F
:10051000FD0F0F900F90E7CFCF92DF92EF92FF92F7
:100520001F93CF93DF930E94A1050E94A5058091A0
:10053000D101882321F0813009F041C005C089E450
:1005400091E00E94D5053BC0C2EDD1E010E091E6FC
:10055000E92E91E0F92E8EE3C82E81E0D82E80E0BE
:10056000612F0E948D05888199812CEF8831920737
:1005700029F484E491E00E94D5051DC000D000D08C
:1005800000D0EDB7FEB73196ADB7BEB71296FC926C
:10059000EE921197D382C282958384830E94BC0B12
:1005A0008DB79EB706960FB6F8949EBF0FBE8DBF4F
:1005B000C7010E94C9051F5F6B96143081F6DF9159
:1005C000CF911F91FF90EF90DF90CF9008950F9300
:1005D0001F93DF93CF9300D00F92CDB7DEB7182FC4
:1005E00080E1BE016F5F7F4FAE014E5F5F4F9E01A6
:1005F0002D5F3F4F0E945F0D882379F589816A81C5
:100600004B810E945C0CAC018981882319F05095C4
:1006100041955F4F012F10E08BE190E0089F900122
:10062000099F300D189F300D1124D901AE52BE4FD5
:1006300056968C915697E82FF0E03196EE0FFF1FFB
:10064000E20FF31FEE52FE4F518340838F5F5696A9
:100650008C9356978A30F0F41FC0212F30E08BE145
:1006600090E0AC01249FC001259F900D349F900D18
:100670001124FC01EE52FE4FE689F0E03196EE0FB8
:10068000FF1FE80FF91FEE52FE4F88E19CEF9183A8
:10069000808369C056961C928BE190E0089FF00120
:1006A000099FF00D189FF00D1124EC52FE4F40E011
:1006B00060E020E030E0808191815CEF8831950737
:1006C00019F0280F391F6F5F4F5F32964A3099F744
:1006D000662381F48BE190E0089FF001099FF00D03
:1006E000189FF00D1124EE52FE4F88E19CEF91838C
:1006F000808311C08BE190E0089FF001099FF00D0D
:10070000189FF00D1124EE52FE4FC90170E00E94B7
:10071000A30F718360838BE190E0089FF001099F34
:10072000F00D189FF00D1124EE52FE4F2081318103
:100730008789908D8217930714F4308F278B8BE174
:1007400090E0089FF001099FF00D189FF00D112413
:10075000EE52FE4F20813181818D928D281739070D
:1007600014F4328F218F0F900F900F90CF91DF9163
:100770001F910F910895CF92DF92EF92FF920F9306
:100780001F93CF93DF9300D086E091E0ADB7BEB763
:1007900012969C938E9311970E94FD0FA8EEB1E0E4
:1007A00020E030E00F900F9048E15CEFC8EED3E01E
:1007B0006BE170E012965C934E9311971496DC9364
:1007C000CE931397269FF001279FF00D369FF00DD3
:1007D0001124EC52FE4F80E090E04193519301963A
:1007E0008A309105D1F71C922F5F3F4F5B962430E2
:1007F000310501F7E0E9CE2EE1E0DE2E01E611E061
:100800007AEBE72E70E0F72E86E290E068E270E087
:1008100047E250E023E00E94B50E81E060E070E026
:100820000E94D50C86E290E068E270E047E250E07A
:1008300022E00E94B50E81E060E070E00E94D50CDD
:1008400086E290E068E270E047E250E021E00E943A
:10085000B50E81E060E070E00E94D50C86E290E089
:1008600068E270E047E250E020E00E94B50E81E0CF
:1008700060E070E00E94D50C80E29EE4F6013197C2
:10088000F1F70197D9F7C0E0D0E0209741F486E274
:1008900090E068E270E047E250E023E01DC0C13024
:1008A000D10541F486E290E068E270E047E250E072
:1008B00022E012C0C230D10541F486E290E068E245
:1008C00070E047E250E021E007C086E290E068E295
:1008D00070E047E250E020E00E94B50E8C2F0E94AD
:1008E000E7022196C430D10581F60E948C02EDB753
:1008F000FEB77C970FB6F894FEBF0FBEEDBF3196E2
:10090000ADB7BEB712961C930E931197F382E28295
:100910008091D2019091D301958384838091ED01E0
:100920009091EE019783868380910802909109024D
:1009300091878087809123029091240293878287F8
:100940008091EB019091EC0195878487809106025C
:1009500090910702978786878091210290912202C9
:10096000918B808B80913C0290913D02938B828B86
:100970008091E9019091EA01958B848B809104022A
:1009800090910502978B868B80911F029091200297
:10099000918F808F80913A0290913B02938F828F4A
:1009A0000E94BC0BEDB7FEB77A960FB6F894FEBF67
:1009B0000FBEEDBF128301830E94E80F0F900F90CE
:1009C00023CF83E390E00E94200186E091E09093A2
:1009D0006202809361028CE00E94E305789408959E
:1009E0000E94E1041092D1010E948C0280E197E202
:1009F00020E931E0F9013197F1F70197D9F700D0FB
:100A000088E790E0EDB7FEB7928381830E94FD0FE7
:100A100081E08093D1010F900F900E94BB03FFCF24
:100A20000895FC01148A8FEF858B0895FC01858958
:100A30008F3F09F4158A94898589891731F0892FA8
:100A40008F5F848B8B3008F0148A0895662311F031
:100A50005A9A01C05A985B98579A219A229A569AA4
:100A60005E982A9829985F9887FD5E9A86FD2A9A53
:100A700085FD299A84FD5F9A5C9A00C05C985E9817
:100A80002A9829985F9883FD5E9A82FD2A9A81FDB3
:100A9000299A80FD5F9A5C9A00C05C985F9A299AB7
:100AA0002A9A5E9A089580E49FE10197F1F75A9897
:100AB0005B9A57982198229856985C9A00C089B101
:100AC000881F8827881F8295807F199980621A99CC
:100AD00080644E9980685C9800C05C9A00C04F9911
:100AE0008160199982601A9984604E9988605C9837
:100AF00008951F93182F0E945305812F60E00E94D4
:100B000026051F9108951F93182F0E945305812FCA
:100B100061E00E9426051F910895662311F4805814
:100B200009C0613011F4805405C0623011F48C5654
:100B300001C08C520E94790508950E94530590E0EF
:100B4000089581E00E947905089582E00E94790568
:100B500008951F93182F0E945305982F1A3099F467
:100B6000843110F480E40BC08054843110F484E1AB
:100B700006C094519C3210F080E001C084E580589A
:100B80000E94790504C0812F61E00E9426051F9113
:100B90000895CF93DF93EC0102C00E94A9058991CB
:100BA0008823D9F7DF91CF910895CF93DF93EC019C
:100BB00002C00E94A905FE01219684918823C9F7ED
:100BC000DF91CF9108951F93182F529A539A549AF8
:100BD000579A219A229A569A80EC9CEA0197F1F74B
:100BE000299A5F9A5C9A00C05C9885EE95E301971C
:100BF000F1F75C9A00C05C9880EB90E0FC013197C3
:100C0000F1F75C9A00C05C98FC013197F1F75F98AE
:100C10005C9A00C05C980197F1F788E20E94790520
:100C200088E00E9479050E94A10586E00E9479056E
:100C3000812F0E9479051F9108951092B90088E4D0
:100C40008093B8000895982F84EA8093BC00809127
:100C5000BC0087FFFCCF8091B900887F883021F0ED
:100C6000803111F081E008959093BB0084E8809377
:100C7000BC008091BC0087FFFCCF9091B900987FA9
:100C8000983111F480E0089580E0903409F081E01B
:100C90000895982F44EA34E824E94093BC008091F9
:100CA000BC0087FFFCCF8091B900887F883011F0AD
:100CB000803199F79093BB003093BC008091BC00C9
:100CC00087FFFCCF8091B900887F803211F0883592
:100CD00039F42093BC008091BC0084FDFCCFDDCFB3
:100CE00008950E942306089584E98093BC008091B2
:100CF000BC0084FDFCCF08958093BB0084E8809302
:100D0000BC008091BC0087FFFCCF8091B90090E0CF
:100D1000887F883209F091E0892F089584EC8093D0
:100D2000BC008091BC0087FFFCCF8091BB00089580
:100D300084E88093BC008091BC0087FFFCCF809149
:100D4000BB000895DC012FEF3FEF40E050E01DC0F5
:100D5000FD01E40FF51F80812827822F82958227CD
:100D6000082E869586958025082E86958025877085
:100D7000022E232F869507948795302D28270694D9
:100D80008795302528274F5F5F4F4617570700F399
:100D900020953095C9010895E82FDB01B90121158F
:100DA0003105B1F14031510598F12830310580F11C
:100DB000CA018A2B9B2B83709070892B49F5E230F6
:100DC00038F52E2F30E08DE090E0289FF001299F2C
:100DD000F00D389FF00D1124E25CFD4F8FEF9FEF77
:100DE00093878287918780871486B183A0835383FA
:100DF000428375836483CA01969587950E948F0FFD
:100E00007783668320E06115710519F021E001C048
:100E100020E0822F0895CF92DF92EF92FF920F93FE
:100E20001F93DF93CF9300D0CDB7DEB77B01C82EE1
:100E3000DD248DE090E0C89EF001C99EF00DD89EA3
:100E4000F00D1124E25CFD4F8485882309F497C0DE
:100E500080859185019691878087268137818217C9
:100E6000930710F0118610868DE090E0C89ED001A7
:100E7000C99EB00DD89EB00D1124A25CBD4F1A962C
:100E80008D919C911B9701961B969C938E931A971C
:100E90001496ED91FC9115973497EE0DFF1D9183FB
:100EA000808314960D90BC91A02DBD0162507040BE
:100EB00020E030E04FEF5FEF1DC0F701E20FF31FBE
:100EC00080814827842F82958427082E86958695D1
:100ED0008025082E869580258770042E452F8695BF
:100EE00007948795502D48270694879550254827C5
:100EF0002F5F3F4F2617370700F3CA018095909563
:100F00009A8389831297AE0DBF1D8D939C938DE0BC
:100F100090E0C89E8001C99E100DD89E100D11242E
:100F2000025C1D4FF8014481558180859185489F61
:100F3000B001499F700D589F700D112480819181DF
:100F4000680F791FC7010E941012F8014481558172
:100F500080859185489FB001499F700D589F700D05
:100F600011248281938196958795680F791F8081DE
:100F70009181680F791FC7010E94101281E00F90C4
:100F80000F90CF91DF911F910F91FF90EF90DF9025
:100F9000CF900895AF92BF92CF92DF92EF92FF92DF
:100FA0000F931F93DF93CF9300D000D0CDB7DEB760
:100FB0002FEF3FEF4FEF5FEF29833A834B835C8343
:100FC000EE24FF2490E02DE030E0829F8001839F9B
:100FD000100D929F100D1124025C1D4F42E0C42E93
:100FE000D12CC00ED11E5E010894A11CB11C0EC0F4
:100FF000F801608171816E0D7F1DC50144E050E0F4
:101000000E94101284E090E0E80EF91EF601808143
:101010009181E816F90660F38FEF9FEFF801918751
:1010200080879387828781E084870F900F900F904D
:101030000F90CF91DF911F910F91FF90EF90DF9074
:10104000CF90BF90AF9008953F924F925F926F9272
:101050007F928F929F92AF92BF92CF92DF92EF9248
:10106000FF920F931F93DF93CF93CDB7DEB72E97E9
:101070000FB6F894DEBF0FBECDBF5B0190E02DE050
:1010800030E0829F8001839F100D929F100D1124EC
:10109000025C1D4F81E0D8011C968C931C97332471
:1010A0001E821D828824992418870F83F8013696A2
:1010B000FA87E987E4E04E2E512C400E511EC801FC
:1010C00002969C878B871896BE87AD877AE0672E3D
:1010D000712C600E711E9CC0F20140815181AB8564
:1010E000BC858D919C9196958795889E7001899E6F
:1010F000F00C989EF00C1124EF81F885808191818D
:10110000E80EF91EC49EC001C59E900DD49E900DA0
:101110001124E80EF91EC501B7010E940012F20168
:10112000A081B181BD016250704020E030E04FEFFE
:101130005FEF1DC0F501E20FF31F80814827842F68
:1011400082958427082E869586958025082E86957B
:1011500080258770042E452F869507948795502DFE
:10116000482706948795502548272F5F3F4F26171D
:10117000370700F31297AA0DBB1D8D919C919A839E
:101180008983409550954817590781F5D201ED9113
:10119000FC913497EA0DFB1D808191819C838B83A8
:1011A0003320B9F09C01B0E480309B0730F4F301A8
:1011B000808191818050904C60F4D3018D919C91FD
:1011C0008217930798F42050304C18F080509044C8
:1011D00068F0AD85BE85CD92DC928B819C81F30158
:1011E00091838083FE82ED82332433940894C11C62
:1011F000D11CA985BA858D919C91C816D90608F491
:101200006BCF0894811C911CB2E08B16910419F0ED
:10121000CC24DD24EECF332041F0F8014481558108
:10122000C5016D817E810E940012832D2E960FB61E
:10123000F894DEBF0FBECDBFCF91DF911F910F910C
:10124000FF90EF90DF90CF90BF90AF909F908F90E6
:101250007F906F905F904F903F9008952F923F92B4
:10126000CF93DF93E10140E05AE014C0AF81B8852D
:101270009D012F5F3F4F38872F838985882319F081
:10128000F901849102C011968C91459F402D112443
:10129000490F8E839E8190539A3040F3842FDF91C3
:1012A000CF913F902F9008952F923F924F925F924F
:1012B0006F927F928F929F92AF92BF92CF92DF9266
:1012C000EF92FF920F931F93DF93CF93CDB7DEB7CB
:1012D0006F970FB6F894DEBF0FBECDBF6B8F7C8FBC
:1012E000FA0179018A87598748876C837D8388232F
:1012F00011F0449101C040814F831EC2853209F034
:1013000005C2A885B985FD013196F987E8879A85D8
:10131000992311F0849102C011968C918F838532AC
:1013200009F4F4C11E821B82188E1F8A0FC0E1E0EF
:10133000EB83A885B985FD013196F987E887992364
:1013400011F0849102C011968C918F838F8180332C
:1013500019F4F1E0F88FEDCF8D3219F481E08F8B25
:10136000E8CF8B3221F31E010894211C311C0E940E
:101370002E098A838F818E3219F02224552417C0BA
:10138000A885B985FD013196F987E8878A85882384
:1013900011F0849102C011968C918F831E010894E4
:1013A000211C311C0E942E09282E552453948F8114
:1013B0008C3611F080E00FC0A885B985FD0131960B
:1013C000F987E8878A85882311F0849102C01196F5
:1013D0008C918F8381E01F81113709F4D6C01237B9
:1013E00050F4133609F4C4C0143609F4FAC01335A6
:1013F00009F094C109C0153709F4F3C0173709F48F
:10140000C4C0133709F08AC162E0662E712C6E0CDD
:101410007F1CF701608171811982FB0104C0898101
:101420008F5F89833196133511F0808101C08491DB
:10143000811181E0882399F7552021F089812816B0
:1014400008F42982143611F01537B9F5F88DFF2309
:1014500049F18E81882329F0EC81FD818DE2808322
:1014600007C08B818823C9F0EC81FD819BE29083CA
:101470008C819D8101969D838C838A81882369F06C
:101480000AC0EC81FD8180E380838C819D8101967F
:101490009D838C838A8181508A839A81898189176F
:1014A00080F30BC09A81992341F08E81882319F42F
:1014B0008B81882311F091509A8373019F8999231E
:1014C00069F010C0EC81FD8180E280838C819D8178
:1014D00001969D838C838A8181508A839A81898138
:1014E000891780F38F81843629F0853719F0988D1C
:1014F0009923A1F48E81882329F0EC81FD818DE26E
:10150000808307C08B81882349F0EC81FD819BE2B9
:1015100090838C819D8101969D838C8349819B0161
:1015200013C08F81833519F0F901808102C0F90160
:101530008491EC81FD8180838C819D8101969D83C6
:101540008C8341502F5F3F4F442359F70CC0EC81EF
:10155000FD8180E280838C819D8101969D838C83B7
:101560008A8181508A839A818981891780F3D6C0C4
:10157000F70180818B87F1E0F98382E090E0E80E4B
:10158000F91EBE01655F7F4F99CF552031F4F701F9
:10159000208082E090E0E80EF91E1737F1F4EC812C
:1015A000FD814B8D5C8D6A819F01241B350B862F3D
:1015B00090E08217930714F41A820FC06E1B640F19
:1015C0006A830BC0EC81FD8120828C819D81019614
:1015D0009D838C838A8181508A838A81882391F7B5
:1015E0009DC08823C9F054E0652E712C6E0C7F1CC1
:1015F000F701C080D180E280F380143609F5F7FE50
:101600001FC0F1E0FE83F094E094D094C094C11C1C
:10161000D11CE11CF11C14C0F7012081318114366A
:1016200039F437FF05C0F1E0FE83309521953F4F37
:1016300042E0642E712C6E0C7F1C6901EE24FF24A5
:101640009AE0392E812C8AEC982E8AE9A82E8BE319
:10165000B82E00E0552059F0321449F4EBE0F0E0E8
:10166000EC0FFD1FE00FF11D8EE280830F5FEBE0BA
:10167000F0E0EC0FFD1FE00FF11DFA8FE98FC701BD
:10168000B601A50194010E94B60F205DE98DFA8D87
:1016900020830F5FC501B4012AE030E040E050E054
:1016A0000E94B60F422E3D8F4E8F5F8FF1E03F16A6
:1016B00029F40983BE01655F7F4F17C0C701B601DA
:1016C000A50194010E94B60FAC01CB01DA016C01B7
:1016D0007D013A94242D3D8D4E8D5F8DC901DA0137
:1016E0004C015D01B7CFB901092FFB018081803327
:1016F00059F4023048F09B012F5F3F4F902F9150DB
:10170000FB0181818E3279F709839CCEEC81FD81CA
:1017100080838C819D8101969D838C83A885B9856A
:10172000FD013196F987E8878A85882311F0849135
:1017300002C011968C918F838F81882309F0DECDB2
:10174000EC81FD8110826F960FB6F894DEBF0FBE5C
:10175000CDBFCF91DF911F910F91FF90EF90DF9060
:10176000CF90BF90AF909F908F907F906F905F9041
:101770004F903F902F900895DF93CF93CDB7DEB772
:10178000FE01399681E06D817E814F8158859F01F0
:101790000E945409CF91DF910895DF93CF93CDB785
:1017A000DEB7FE01399680E06D817E814F815885DC
:1017B0009F010E945409CF91DF910895DC0120E040
:1017C00040E050E098E115C0FD01E40FF51FE08115
:1017D00038E08E2F8227F82FF17080FD292726957B
:1017E000F13009F42068315011F0E695F2CF4F5FE7
:1017F0005F4F4617570741F7822F0895DC01CB0151
:1018000081159105A105B10529F081509040A040B6
:10181000B040D9F70895FF920F931F93CF93DF93B2
:10182000F82EFB01DA01E9018081482F50E0918117
:1018300080E0482B592B80E1F81671F4CA018E7FA5
:1018400033E0880F991F3A95E1F726814CE050E08C
:10185000421B5109480F591F57FF06C081E08C9366
:10186000509541955F4F01C01C9288E2F81691F4A3
:101870008481682F70E0CB0180769070803691056E
:1018800049F066FF02C04E7F05C065FF02C04C7F75
:1018900001C0487FCA0124E0969587952A95E1F713
:1018A0008883842F8F70F801808380E0DF91CF914F
:1018B0001F910F91FF9008950F931F93DF93CF9384
:1018C000CDB7DEB728970FB6F894DEBF0FBECDBFF9
:1018D000082F162FDE011196E4E1F1E088E0019077
:1018E0000D928150E1F7242F30E081E792E0BC01B6
:1018F000269FC001279F900D369F900D112468EE02
:1019000073E00E94A30FCB012AE0129FB0011124C3
:10191000680F791F002379F4FE0131969E01275F3D
:101920003F4F8081481719F46F5F7F4F04C0319695
:10193000E217F307B1F7CB0128960FB6F894DEBF94
:101940000FBECDBFCF91DF911F910F9108958823D6
:1019500019F0709561957F4F442319F030952195CA
:101960003F4F6217730714F48FEF089580E0261736
:1019700037070CF481E00895CF93DF93EC010E94C8
:10198000710E0E94400E882311F481E00BC088EB99
:10199000BE010E94700F64E278E680E090E00E9451
:1019A000FE0B80E0DF91CF9108951F93CF93DF93DB
:1019B000182FEB010E94710E0E94400E882311F433
:1019C00082E009C084E4BE010E94700F113011F062
:1019D0000E94490E80E0DF91CF911F9108951F93DF
:1019E000CF93DF93182FEB010E94710E0E94400EDF
:1019F000882311F482E013C088E4BE010E94700FB6
:101A0000113011F00E94490E64E278E680E090E027
:101A10000E94FE0B113011F00E945C0E80E0DF91FD
:101A2000CF911F9108950F931F93CF93DF93EC01F4
:101A30008B010E94710E0E94400E882311F481E0F8
:101A400011C08EEBBE010E94700FC0E0D0E00E947A
:101A5000200FF801EC0FFD1F80832196C930D105BE
:101A6000B1F780E0DF91CF911F910F910895FF9220
:101A70000F931F93CF93DF93EC01162F042FF22EB9
:101A80000E94710E0E94400E882311F481E011C063
:101A90008EE4BE010E94700F812F0E940F0F802FD5
:101AA0000E940F0F8881883219F48F2D0E940F0F2A
:101AB00080E0DF91CF911F910F91FF9008957F9269
:101AC0008F929F92AF92BF92CF92DF92EF92FF924E
:101AD0000F931F93DF93CF93CDB7DEB729970FB640
:101AE000F894DEBF0FBECDBF782E6B015A014901BD
:101AF0008EEB60E070E00E94700F8E010F5F1F4F51
:101B00004AE0E42EF12CEC0EFD1E0E94200FF8019D
:101B100081938F01EE15FF05C1F77E010894E11C4A
:101B2000F11CC70169E070E00E94DE0B882311F010
:101B300083E008C0872DB701A601950184010E94AA
:101B40000B0C80E029960FB6F894DEBF0FBECDBF18
:101B5000CF91DF911F910F91FF90EF90DF90CF9089
:101B6000BF90AF909F908F907F9008956F927F92DB
:101B70008F929F92AF92BF92CF92DF92EF92FF929D
:101B80000F931F93DF93CF93CDB7DEB729970FB68F
:101B9000F894DEBF0FBECDBF6C015B014A01390175
:101BA0000E94710E8EEBB6010E94700F8E010F5FC6
:101BB0001F4F5AE0E52EF12CEC0EFD1E0E94200F67
:101BC000F80181938F01EE15FF05C1F77E0108949E
:101BD000E11CF11CC70169E070E00E94DE0B882364
:101BE00011F083E009C0F6018081B701A5019401DD
:101BF00083010E940B0C80E029960FB6F894DEBF9B
:101C00000FBECDBFCF91DF911F910F91FF90EF904D
:101C1000DF90CF90BF90AF909F908F907F906F900C
:101C200008950F931F938C010E94710E84EBB801ED
:101C30000E94700F81E00E94CD0E182F0E94710E3D
:101C4000111111E0812F1F910F9108950F931F9390
:101C5000CF93DF938C01EB01F8018081BE010E94DC
:101C6000240FF801808381508D3F28F488818832C9
:101C700011F0803189F7DF91CF911F910F91089575
:101C8000E0915B02F0915C02808190915A0289237D
:101C90000895E0915802F0915902808190915A0282
:101CA000892B8083E0915D02F0915E0280819091AA
:101CB0005A02892B80830895E0915802F0915902CD
:101CC000908180915A02809589238083E0915D0202
:101CD000F0915E02908180915A02809589238083E1
:101CE0000895E0915802F0915902908180915A0232
:101CF000809589238083E0915D02F0915E0280816E
:101D000090915A02892B80838FE897E08115910585
:101D100011F00197F1F72FB7F894E0915D02F0917F
:101D20005E02908180915A0280958923808389E0A8
:101D300091E08115910511F00197F1F7E0915B02B7
:101D4000F0915C02408130915A022FBF85E896E005
:101D50008115910511F00197F1F78081832311F42A
:101D600081E00895842F8323089550935E02409369
:101D70005D02709359026093580290935C028093C5
:101D80005B0281E090E002C0880F991F2A95E2F77C
:101D900080935A020E94710E0895382F4FB7F8941D
:101DA000E0915D02F0915E02808190915A02892B50
:101DB000808383E090E08115910511F00197F1F7A0
:101DC000332351F0E0915D02F0915E0290818091A9
:101DD0005A0280958923808388E390E081159105DC
:101DE00011F00197F1F7E0915B02F0915C028081C4
:101DF00020915A02822309F430E085EB90E08115AE
:101E0000910511F00197F1F7E0915D02F0915E020A
:101E100080812095282320834FBF832F08950F931F
:101E20001F93182F08E0812F81700E94CD0E169508
:101E3000811110680150B9F7812F1F910F910895FA
:101E40008FEF0E940F0F0895DF92EF92FF920F9392
:101E50001F93CF93DF93E82EEB010E94710E88232E
:101E6000A1F580EF0E940F0F80E4FF24182F98EF58
:101E7000D92ED80E81E00E94CD0E082F81E00E945D
:101E8000CD0E882329F0002371F08EEFF82E1FC0AD
:101E9000002349F41E1528F0888180FF04C0E11654
:101EA00011F0F12E01E0802F0E94CD0E88818695E1
:101EB0008883002311F08068888311501D15D1F6A6
:101EC000112329F02196812FD1CFFF24FA948F2D51
:101ED000DF91CF911F910F91FF90EF90DF900895C8
:101EE0000F931F93CF93DF93082FEB010E94710E86
:101EF000209751F085E50E940F0F18E089910E940C
:101F00000F0F1150D9F703C08CEC0E940F0F802FD8
:101F10000E940F0FDF91CF911F910F910895AA1B7F
:101F2000BB1B51E107C0AA1FBB1FA617B70710F0C4
:101F3000A61BB70B881F991F5A95A9F780959095F6
:101F4000BC01CD01089597FB092E07260AD077FD25
:101F500004D0E5DF06D000201AF4709561957F4F1C
:101F60000895F6F7909581959F4F0895A1E21A2E56
:101F7000AA1BBB1BFD010DC0AA1FBB1FEE1FFF1F2D
:101F8000A217B307E407F50720F0A21BB30BE40B7D
:101F9000F50B661F771F881F991F1A9469F76095C4
:101FA0007095809590959B01AC01BD01CF0108957E
:101FB000FB01DC018D91059080190110D9F3990B7B
:101FC0000895FB01DC0105900D920020E1F70895D2
:101FD000A0E0B0E0EEEEFFE00C94D812FE013596E2
:101FE000619171918091610290916202AF010E94B2
:101FF00023102096E2E00C94F412A0E0B0E0E3E0BD
:10200000F0E10C94D812FE01359661917191A09186
:102010006102B091620213968C91139788601396B7
:102020008C938091610290916202AF010E94231013
:10203000E0916102F09162022381277F2383209641
:10204000E2E00C94F412ABE0B0E0E9E2F0E10C94D1
:10205000C8123C012B015A01FC01178216828381B0
:1020600081FD03C06FEF7FEFC6C19AE0892E1E018C
:102070000894211C311CF3012381F20123FD859179
:1020800023FF81912F01882309F4B2C1853239F4ED
:1020900023FD859123FF81912F01853229F490E062
:1020A000B3010E943E12E7CF982FFF24EE2499241B
:1020B000FFE1FF15D0F09B3269F09C3228F490329A
:1020C00059F0933291F40EC09D3249F0903369F487
:1020D00041E024C052E0F52A84E0F82A28C098E0C4
:1020E000F92A25C0E0E1FE2A22C0F7FC29C0892F89
:1020F00080538A3070F4F6FE05C0989C902C112411
:10210000980E15C0E89CE02C1124E80EF0E2FF2A9E
:102110000EC09E3229F4F6FC6BC140E4F42A07C0DD
:102120009C3619F450E8F52A02C0983649F4F201B9
:1021300023FD959123FF91912F01992309F0B8CFA9
:10214000892F8554833018F08052833038F444E06E
:1021500050E0A40EB51E5FE359830FC0933631F0F3
:10216000933779F0933509F056C020C0F50180818E
:10217000898342E050E0A40EB51E610101E010E049
:1021800012C0F501C080D180F6FC03C06FEF7FEF75
:1021900002C0692D70E042E050E0A40EB51EC601F9
:1021A0000E9433128C015FE7F52214C0F501C08054
:1021B000D180F6FC03C06FEF7FEF02C0692D70E0A5
:1021C00042E050E0A40EB51EC6010E9428128C0108
:1021D00050E8F52AF3FE07C01AC080E290E0B30190
:1021E0000E943E12EA948E2D90E008171907A8F37A
:1021F0000EC0F601F7FC8591F7FE81916F0190E02A
:10220000B3010E943E12E110EA9401501040011502
:10221000110579F7EAC0943611F0993669F5F7FEA1
:1022200008C0F501208131814281538184E090E032
:102230000AC0F501808191819C01442737FD4095BA
:10224000542F82E090E0A80EB91E9FE6F92257FFB6
:1022500009C050954095309521953F4F4F4F5F4FA6
:10226000E0E8FE2ACA01B901A1012AE030E00E949B
:102270006A12D82ED21840C0953729F41F2D1F7E20
:102280002AE030E01DC01F2D197F9F3661F0903786
:1022900020F4983509F0ACC00FC0903739F098376A
:1022A00009F0A6C004C028E030E00AC0106114FDA7
:1022B000146020E130E004C014FD166020E132E03B
:1022C00017FF08C0F501608171818281938144E02C
:1022D00050E008C0F50180819181BC0180E090E070
:1022E00042E050E0A40EB51EA1010E946A12D82E51
:1022F000D2188FE7F82EF122F6FE0BC05EEFF52222
:10230000D91438F4F4FE07C0F2FC05C08FEEF822B1
:1023100002C01D2D01C0192DF4FE0DC0FE01ED0DF2
:10232000F11D8081803319F499EEF92208C01F5FF6
:10233000F2FE05C003C08F2D867809F01F5F0F2DB8
:10234000F3FC14C0F0FE0FC01E1510F09D2C0BC046
:102350009D2C9E0C911A1E2D06C080E290E0B301C8
:102360000E943E121F5F1E15C0F304C01E1510F41C
:10237000E11A01C0EE2404FF0FC080E390E0B30136
:102380000E943E1202FF1DC001FD03C088E790E0DD
:102390000EC088E590E00BC0802F867891F001FF99
:1023A00002C08BE201C080E2F7FC8DE290E0B30155
:1023B0000E943E1206C080E390E0B3010E943E12EC
:1023C0009A94D914C0F3DA94F101ED0DF11D8081D6
:1023D00090E0B3010E943E12DD20A9F706C080E222
:1023E00090E0B3010E943E12EA94EE20C1F743CE82
:1023F000F30166817781CB012B96E2E10C94E41224
:10240000DC01CB01FC01F999FECF06C0F2BDE1BDB4
:10241000F89A319600B40D9241505040B8F70895A3
:10242000DC01CB0103C02D910E941B124150504092
:10243000D0F70895262FF999FECF1FBA92BD81BD1E
:1024400020BD0FB6F894FA9AF99A0FBE0196089536
:10245000FC010590615070400110D8F7809590956F
:102460008E0F9F1F0895FC01615070400190011074
:10247000D8F7809590958E0F9F1F08950F931F9307
:10248000CF93DF938C01EB018B8181FF1BC082FF17
:102490000DC02E813F818C819D812817390764F4FE
:1024A000E881F9810193F983E88306C0E885F9851D
:1024B000802F0995892B31F48E819F8101969F830E
:1024C0008E8302C00FEF1FEFC801DF91CF911F91E4
:1024D0000F910895FA01AA27283051F1203181F196
:1024E000E8946F936E7F6E5F7F4F8F4F9F4FAF4F1C
:1024F000B1E03ED0B4E03CD0670F781F891F9A1F2F
:10250000A11D680F791F8A1F911DA11D6A0F711DE2
:10251000811D911DA11D20D009F468943F912AE0EE
:10252000269F11243019305D3193DEF6CF010895D6
:10253000462F4770405D4193B3E00FD0C9F7F6CF07
:10254000462F4F70405D4A3318F0495D31FD4052CF
:10255000419302D0A9F7EACFB4E0A6959795879565
:1025600077956795BA95C9F7009761057105089544
:102570009B01AC010A2E06945795479537952795F0
:10258000BA95C9F7620F731F841F951FA01D089588
:102590002F923F924F925F926F927F928F929F9273
:1025A000AF92BF92CF92DF92EF92FF920F931F9361
:1025B000CF93DF93CDB7DEB7CA1BDB0B0FB6F89412
:1025C000DEBF0FBECDBF09942A88398848885F8452
:1025D0006E847D848C849B84AA84B984C884DF80C3
:1025E000EE80FD800C811B81AA81B981CE0FD11DA7
:1025F0000FB6F894DEBF0FBECDBFED010895F8947D
:02260000FFCF0A
:102602004B616C6C65000000000300000000570184
:0C2612003A01000001030406090B0C0E45
:00000001FF
